{"contracts/BasicDutchAuction.sol":{"DutchAuction":{"abi":[{"inputs":[{"internalType":"uint256","name":"_reserve_price","type":"uint256"},{"internalType":"address","name":"_judge_address","type":"address"},{"internalType":"uint256","name":"_numBlocks_Auction_Open","type":"uint256"},{"internalType":"uint256","name":"_offer_price_decrement","type":"uint256"}],"stateMutability":"nonpayable","type":"constructor"},{"inputs":[],"name":"bid","outputs":[{"internalType":"address","name":"","type":"address"}],"stateMutability":"payable","type":"function"},{"inputs":[],"name":"finalize","outputs":[],"stateMutability":"nonpayable","type":"function"},{"inputs":[],"name":"nop","outputs":[{"internalType":"bool","name":"","type":"bool"}],"stateMutability":"nonpayable","type":"function"},{"inputs":[{"internalType":"uint256","name":"refundAmount","type":"uint256"}],"name":"refund","outputs":[],"stateMutability":"nonpayable","type":"function"}],"evm":{"bytecode":{"linkReferences":{},"object":"60806040523480156200001157600080fd5b50604051620014253803806200142583398181016040528101906200003791906200042a565b6200006b7f5177cac4ea0892829c59b8f4091873c4ecac07cda9c3b2476da05d82db968bdc60001b6200038260201b60201c565b6200009f7f6a5992d3a99121f8812d47a048204247be6170dc06b3c0c7fc319b1ae9e1e96960001b6200038260201b60201c565b620000d37fbf21410ff84109b91b17e67c79227d5907ab6a8f37abf8207a17b41c0b61442360001b6200038260201b60201c565b836001819055506200010e7f82080f858d9bc956013aa1ade82fe5510534e7a9680181c7c249ad1b3c72e80c60001b6200038260201b60201c565b620001427f2076409f9e28c76a04067db499a30e934199af91b78f57d5601892820409972360001b6200038260201b60201c565b82600260006101000a81548173ffffffffffffffffffffffffffffffffffffffff021916908373ffffffffffffffffffffffffffffffffffffffff160217905550620001b77fb005e57fcac6867d702a296af20f29331b2db653eaf606422bc7f6d64dc6e8d860001b6200038260201b60201c565b620001eb7f9cba95fc4cd32d88073c1df300006b2a78d9370494610d02d1f575d76048c24b60001b6200038260201b60201c565b81600381905550620002267f188a475b7ec07d94cf4a91701bda2b44119af90aa59353c9b46651d3e4575c5960001b6200038260201b60201c565b6200025a7fa0a6065d54158b7f1610cf97b701116e939ee39422ea1b7816e784bb238a18ae60001b6200038260201b60201c565b80600481905550620002957faf52853e9290d30c4a28868cc8d3bd22683e8aef37714aed786e84c9be739e8660001b6200038260201b60201c565b620002c97f7477365cdd12ae5ae57ad42613e7c52d255161f116c4d9dc95ec05eab7ab6b9460001b6200038260201b60201c565b336000806101000a81548173ffffffffffffffffffffffffffffffffffffffff021916908373ffffffffffffffffffffffffffffffffffffffff1602179055506200033d7f732cde5e58c3954be417d6f187d7de1c8762c4c79a4bdec0e287c71f9e19874660001b6200038260201b60201c565b620003717fee1e99287dc95edf89c8ed40b5e95fa27a458b5c653fead33f26d22ebd78282e60001b6200038260201b60201c565b43600581905550505050506200049c565b50565b600080fd5b6000819050919050565b6200039f816200038a565b8114620003ab57600080fd5b50565b600081519050620003bf8162000394565b92915050565b600073ffffffffffffffffffffffffffffffffffffffff82169050919050565b6000620003f282620003c5565b9050919050565b6200040481620003e5565b81146200041057600080fd5b50565b6000815190506200042481620003f9565b92915050565b6000806000806080858703121562000447576200044662000385565b5b60006200045787828801620003ae565b94505060206200046a8782880162000413565b93505060406200047d87828801620003ae565b92505060606200049087828801620003ae565b91505092959194509250565b610f7980620004ac6000396000f3fe60806040526004361061003f5760003560e01c80631998aeef14610044578063278ecde1146100625780632e9c58bb1461008b5780634bb278f3146100b6575b600080fd5b61004c6100cd565b6040516100599190610d77565b60405180910390f35b34801561006e57600080fd5b5061008960048036038101906100849190610dcd565b6106bb565b005b34801561009757600080fd5b506100a0610900565b6040516100ad9190610e15565b60405180910390f35b3480156100c257600080fd5b506100cb61098d565b005b60006100fb7f742c493a0222f2a6f7f061411c6abd1afe470bbea7de23ce40028b88343abf1c60001b610d33565b6101277fc8f454485cd48112f1e666e24b3c00e24e9dc0f8db5f3a08937b5c5b82914e3360001b610d33565b6101537f16939958b06498cc3a4c98d43cd3a5b357ca5bdc1bfc11d4e3b31797caaaf79560001b610d33565b61017f7f4d0640cf6c37e5135c009e8e965f4117acb751c2e8e4ee616ee667d5e48ab52b60001b610d33565b600860009054906101000a900460ff161561019957600080fd5b6101c57f2f74d88168757fd9506cab1110a08a9cc7677dcdd712ad9b4583aefbadaa877f60001b610d33565b6101f17ff5ff7d4f7823f9e7a6818003e1d8d83ffb04cf804708ade9f16a74515ef290c760001b610d33565b61021d7f8e3937975807d13634428a5869880a093c71a97542f2aed999e01a09bd9e886460001b610d33565b6102497f2ce8d27a3f34187d6038c79540b5c1b09b7496cadb1d3e94bce12278ef944e0a60001b610d33565b6003546005546102599190610e5f565b431061026457600080fd5b6102907ff6f37a5964589cf855d85baa4002e207fbed0a77098f8f65bd9fad7f1d07b56d60001b610d33565b6102bc7fada00936c9ce28af33eec38ef5cb373c62d0d3118fbcfb31e7f1875d372e756460001b610d33565b6102e87f6c80e96d70f927b2d36c2665b47db4e76e5f4018491917902d41c56b502d28de60001b610d33565b6103147fbb75f517552dac29c2e84980b124e9e0b17148bad90cc461711421b02050435e60001b610d33565b436003546005546103259190610e5f565b61032f9190610eb5565b60045461033c9190610ee9565b6001546103499190610e5f565b34101561035557600080fd5b6103817f651576e2b39af03e31a0698c7f80dc5e2866660efab68e9499ca9d972da0702b60001b610d33565b6103ad7f182ec3cb431296ab0a52f3229b80db3a2668974a5bdf15b3ca48772fcc62ef6560001b610d33565b6103d97f70bbcad92da3831cb4dee6dad6360188976b79b0c65783d6821cdd8bbe15873060001b610d33565b6001600860006101000a81548160ff0219169083151502179055506104207f996fe2f95c90332c5496a396b783b49f52bd6069f505682184f64613e8b2827560001b610d33565b61044c7f3f6ad4b2b33b49c93fe8276cb1318f42eaf515fea0b7d2f135bdffeadf07663360001b610d33565b600073ffffffffffffffffffffffffffffffffffffffff16600260009054906101000a900473ffffffffffffffffffffffffffffffffffffffff1673ffffffffffffffffffffffffffffffffffffffff161415610593576104cf7f33f23d2eea932d84aef87160f5b1e0e389873a7e9d1cf8c91172239b4d6ffd5e60001b610d33565b6104fb7fb5c76d2bb5cb12f2a8fb439a01e2f37e6039ca8a7e991eff515ab3c5d956133460001b610d33565b6105277f92185a962858e565112eacf0630a68c7a51ff54c6ef742219564e67f0d46e27a60001b610d33565b60008054906101000a900473ffffffffffffffffffffffffffffffffffffffff1673ffffffffffffffffffffffffffffffffffffffff166108fc349081150290604051600060405180830381858888f1935050505015801561058d573d6000803e3d6000fd5b506106b8565b6105bf7f0b853bf5897ce0924ca2728e4536744794e21b1b8bf4a43830bf03d27b40c4b160001b610d33565b6105eb7fd5287b963668122425b8c45d0c715758a889bffcb797ba252ddf2458fe1dfec460001b610d33565b6106177f131bf6f8ab96f32b7d565d7c5982280022e10fcbf08b0f2818496999827a515960001b610d33565b33600660006101000a81548173ffffffffffffffffffffffffffffffffffffffff021916908373ffffffffffffffffffffffffffffffffffffffff1602179055506106847fc467aedcf1e2e0a14b513478cf3f7eba24b59702bd2634090445963c18326de660001b610d33565b6106b07fbfc3ed28e3464b4e6f6a247f89f2434ae06c9151459c5bfc0c9f077905fec56760001b610d33565b346007819055505b90565b6106e77f3d64def7a2c31cd56d4200c9dd8b8f72412387c464e19da2a685348105aa8eec60001b610d33565b6107137fe82890acb30c025ca0b0906ea6f1f44619c1da39ead3b26c304e4fb9cc66b6af60001b610d33565b61073f7f8e0122fc3cfd831dfbb4abcf365d57c1e9edddf03dccaa418723af87cb5e38fa60001b610d33565b61076b7fbed33d79409999a9094a5c5d0da7beeb18007e5d75a091c9fa57f0a0e02a8b8660001b610d33565b600860009054906101000a900460ff1680156107945750600860019054906101000a900460ff16155b61079d57600080fd5b6107c97f9b7d64d9b52b8eea1158876d6c0bfd40a45ba52d8609d60e8e0867ba870df6f460001b610d33565b6107f57f34e91a904ab41bbda6bd1cae23a5c85faff486f7fd66a9ef7a014bc378bbbc9360001b610d33565b6108217f07f78a2c753c090b792cab14ab3177673805f177fbe1b94bec75d15ef39e7d9c60001b610d33565b6001600860016101000a81548160ff0219169083151502179055506108687fe49df7b7467037d834c0333be02665c2755ee10d99c761240b3befd0b5a846fb60001b610d33565b6108947f06e1083adf70a0817da4374483630eb720945b51311d9a83ad3640ba4bcb3ac460001b610d33565b600660009054906101000a900473ffffffffffffffffffffffffffffffffffffffff1673ffffffffffffffffffffffffffffffffffffffff166108fc829081150290604051600060405180830381858888f193505050501580156108fc573d6000803e3d6000fd5b5050565b600061092e7f56ce1f72e5dac4c2c4f8155d19fc5fc625cf55f79a41c76fce2b792d3c774a9060001b610d33565b61095a7f4ee852c6a899261f3f12079dd5e418321b9040b4de480f791be8ead842313fc360001b610d33565b6109867fb4196435df813ba1a2b1255ff3600b1efdff7cbc208c4e4a59f429fb28f5384c60001b610d33565b6001905090565b6109b97fa76f553c96e6f8147e13847f1172a30f8ac9fbd681a81839f6cfab4b09ee386560001b610d33565b6109e57ff3f03f38322351c02a22d61e920ff7ecefa55982048ff84d89791e440c0855ec60001b610d33565b610a117fc6b44d22926f1792a98196d26e85f455b4129ef0c722f10183e1b53d617a1ee960001b610d33565b610a3d7fd02e7515c60bddfa92ab5c76845e35689bd748f1f7dc0cb84edf1ff877ffa85460001b610d33565b600860009054906101000a900460ff168015610a665750600860019054906101000a900460ff16155b610a6f57600080fd5b610a9b7f27bfb64d27c32f25f0456cdfa30d453ca72e0580cda0c90baac06e3c6bc4833d60001b610d33565b610ac77fcb44ea91aef3c1f06ea7c61f575cc811e4e3dfb8b824984f2875dd379268b78f60001b610d33565b610af37f89871e2d5b04a1d4737c18c97032ca7a9a5aabfabee4659b44ee17fee94c257760001b610d33565b610b1f7fe3a41c0d515f54e4e4d1d4bb99558511e1dc63fab059588160c0c14e9670e72f60001b610d33565b600260009054906101000a900473ffffffffffffffffffffffffffffffffffffffff1673ffffffffffffffffffffffffffffffffffffffff163373ffffffffffffffffffffffffffffffffffffffff161480610bc85750600660009054906101000a900473ffffffffffffffffffffffffffffffffffffffff1673ffffffffffffffffffffffffffffffffffffffff163373ffffffffffffffffffffffffffffffffffffffff16145b610bd157600080fd5b610bfd7f3aef8a872496b3ff6d0062b5291cc6cb4806b6bcfcfe8706398b0007124c022860001b610d33565b610c297f9fa377bca085e0e726faf60d1508c9a4ea57bfd8e62c3369328ae6d911a1369b60001b610d33565b610c557f38943c7c3f9d33bc419eb35ecde5e7d8da25a16a9364b6a6495f37df647a435160001b610d33565b6001600860016101000a81548160ff021916908315150217905550610c9c7f42d277977aa0afb8ce75dc9b47e36899300de7c1148ada4da11e39caa343a75e60001b610d33565b610cc87f1a08e7adeeade92f1b5d7ab2dd8418a8da8772ae5cb49b6a41dc360fca9674b360001b610d33565b60008054906101000a900473ffffffffffffffffffffffffffffffffffffffff1673ffffffffffffffffffffffffffffffffffffffff166108fc6007549081150290604051600060405180830381858888f19350505050158015610d30573d6000803e3d6000fd5b50565b50565b600073ffffffffffffffffffffffffffffffffffffffff82169050919050565b6000610d6182610d36565b9050919050565b610d7181610d56565b82525050565b6000602082019050610d8c6000830184610d68565b92915050565b600080fd5b6000819050919050565b610daa81610d97565b8114610db557600080fd5b50565b600081359050610dc781610da1565b92915050565b600060208284031215610de357610de2610d92565b5b6000610df184828501610db8565b91505092915050565b60008115159050919050565b610e0f81610dfa565b82525050565b6000602082019050610e2a6000830184610e06565b92915050565b7f4e487b7100000000000000000000000000000000000000000000000000000000600052601160045260246000fd5b6000610e6a82610d97565b9150610e7583610d97565b9250827fffffffffffffffffffffffffffffffffffffffffffffffffffffffffffffffff03821115610eaa57610ea9610e30565b5b828201905092915050565b6000610ec082610d97565b9150610ecb83610d97565b925082821015610ede57610edd610e30565b5b828203905092915050565b6000610ef482610d97565b9150610eff83610d97565b9250817fffffffffffffffffffffffffffffffffffffffffffffffffffffffffffffffff0483118215151615610f3857610f37610e30565b5b82820290509291505056fea2646970667358221220ad4fef73ee8a4b7e74dc3ca01af2bf326cb74de64be83177dbd57fcfef597dd864736f6c63430008090033","opcodes":"PUSH1 0x80 PUSH1 0x40 MSTORE CALLVALUE DUP1 ISZERO PUSH3 0x11 JUMPI PUSH1 0x0 DUP1 REVERT JUMPDEST POP PUSH1 0x40 MLOAD PUSH3 0x1425 CODESIZE SUB DUP1 PUSH3 0x1425 DUP4 CODECOPY DUP2 DUP2 ADD PUSH1 0x40 MSTORE DUP2 ADD SWAP1 PUSH3 0x37 SWAP2 SWAP1 PUSH3 0x42A JUMP JUMPDEST PUSH3 0x6B PUSH32 0x5177CAC4EA0892829C59B8F4091873C4ECAC07CDA9C3B2476DA05D82DB968BDC PUSH1 0x0 SHL PUSH3 0x382 PUSH1 0x20 SHL PUSH1 0x20 SHR JUMP JUMPDEST PUSH3 0x9F PUSH32 0x6A5992D3A99121F8812D47A048204247BE6170DC06B3C0C7FC319B1AE9E1E969 PUSH1 0x0 SHL PUSH3 0x382 PUSH1 0x20 SHL PUSH1 0x20 SHR JUMP JUMPDEST PUSH3 0xD3 PUSH32 0xBF21410FF84109B91B17E67C79227D5907AB6A8F37ABF8207A17B41C0B614423 PUSH1 0x0 SHL PUSH3 0x382 PUSH1 0x20 SHL PUSH1 0x20 SHR JUMP JUMPDEST DUP4 PUSH1 0x1 DUP2 SWAP1 SSTORE POP PUSH3 0x10E PUSH32 0x82080F858D9BC956013AA1ADE82FE5510534E7A9680181C7C249AD1B3C72E80C PUSH1 0x0 SHL PUSH3 0x382 PUSH1 0x20 SHL PUSH1 0x20 SHR JUMP JUMPDEST PUSH3 0x142 PUSH32 0x2076409F9E28C76A04067DB499A30E934199AF91B78F57D56018928204099723 PUSH1 0x0 SHL PUSH3 0x382 PUSH1 0x20 SHL PUSH1 0x20 SHR JUMP JUMPDEST DUP3 PUSH1 0x2 PUSH1 0x0 PUSH2 0x100 EXP DUP2 SLOAD DUP2 PUSH20 0xFFFFFFFFFFFFFFFFFFFFFFFFFFFFFFFFFFFFFFFF MUL NOT AND SWAP1 DUP4 PUSH20 0xFFFFFFFFFFFFFFFFFFFFFFFFFFFFFFFFFFFFFFFF AND MUL OR SWAP1 SSTORE POP PUSH3 0x1B7 PUSH32 0xB005E57FCAC6867D702A296AF20F29331B2DB653EAF606422BC7F6D64DC6E8D8 PUSH1 0x0 SHL PUSH3 0x382 PUSH1 0x20 SHL PUSH1 0x20 SHR JUMP JUMPDEST PUSH3 0x1EB PUSH32 0x9CBA95FC4CD32D88073C1DF300006B2A78D9370494610D02D1F575D76048C24B PUSH1 0x0 SHL PUSH3 0x382 PUSH1 0x20 SHL PUSH1 0x20 SHR JUMP JUMPDEST DUP2 PUSH1 0x3 DUP2 SWAP1 SSTORE POP PUSH3 0x226 PUSH32 0x188A475B7EC07D94CF4A91701BDA2B44119AF90AA59353C9B46651D3E4575C59 PUSH1 0x0 SHL PUSH3 0x382 PUSH1 0x20 SHL PUSH1 0x20 SHR JUMP JUMPDEST PUSH3 0x25A PUSH32 0xA0A6065D54158B7F1610CF97B701116E939EE39422EA1B7816E784BB238A18AE PUSH1 0x0 SHL PUSH3 0x382 PUSH1 0x20 SHL PUSH1 0x20 SHR JUMP JUMPDEST DUP1 PUSH1 0x4 DUP2 SWAP1 SSTORE POP PUSH3 0x295 PUSH32 0xAF52853E9290D30C4A28868CC8D3BD22683E8AEF37714AED786E84C9BE739E86 PUSH1 0x0 SHL PUSH3 0x382 PUSH1 0x20 SHL PUSH1 0x20 SHR JUMP JUMPDEST PUSH3 0x2C9 PUSH32 0x7477365CDD12AE5AE57AD42613E7C52D255161F116C4D9DC95EC05EAB7AB6B94 PUSH1 0x0 SHL PUSH3 0x382 PUSH1 0x20 SHL PUSH1 0x20 SHR JUMP JUMPDEST CALLER PUSH1 0x0 DUP1 PUSH2 0x100 EXP DUP2 SLOAD DUP2 PUSH20 0xFFFFFFFFFFFFFFFFFFFFFFFFFFFFFFFFFFFFFFFF MUL NOT AND SWAP1 DUP4 PUSH20 0xFFFFFFFFFFFFFFFFFFFFFFFFFFFFFFFFFFFFFFFF AND MUL OR SWAP1 SSTORE POP PUSH3 0x33D PUSH32 0x732CDE5E58C3954BE417D6F187D7DE1C8762C4C79A4BDEC0E287C71F9E198746 PUSH1 0x0 SHL PUSH3 0x382 PUSH1 0x20 SHL PUSH1 0x20 SHR JUMP JUMPDEST PUSH3 0x371 PUSH32 0xEE1E99287DC95EDF89C8ED40B5E95FA27A458B5C653FEAD33F26D22EBD78282E PUSH1 0x0 SHL PUSH3 0x382 PUSH1 0x20 SHL PUSH1 0x20 SHR JUMP JUMPDEST NUMBER PUSH1 0x5 DUP2 SWAP1 SSTORE POP POP POP POP POP PUSH3 0x49C JUMP JUMPDEST POP JUMP JUMPDEST PUSH1 0x0 DUP1 REVERT JUMPDEST PUSH1 0x0 DUP2 SWAP1 POP SWAP2 SWAP1 POP JUMP JUMPDEST PUSH3 0x39F DUP2 PUSH3 0x38A JUMP JUMPDEST DUP2 EQ PUSH3 0x3AB JUMPI PUSH1 0x0 DUP1 REVERT JUMPDEST POP JUMP JUMPDEST PUSH1 0x0 DUP2 MLOAD SWAP1 POP PUSH3 0x3BF DUP2 PUSH3 0x394 JUMP JUMPDEST SWAP3 SWAP2 POP POP JUMP JUMPDEST PUSH1 0x0 PUSH20 0xFFFFFFFFFFFFFFFFFFFFFFFFFFFFFFFFFFFFFFFF DUP3 AND SWAP1 POP SWAP2 SWAP1 POP JUMP JUMPDEST PUSH1 0x0 PUSH3 0x3F2 DUP3 PUSH3 0x3C5 JUMP JUMPDEST SWAP1 POP SWAP2 SWAP1 POP JUMP JUMPDEST PUSH3 0x404 DUP2 PUSH3 0x3E5 JUMP JUMPDEST DUP2 EQ PUSH3 0x410 JUMPI PUSH1 0x0 DUP1 REVERT JUMPDEST POP JUMP JUMPDEST PUSH1 0x0 DUP2 MLOAD SWAP1 POP PUSH3 0x424 DUP2 PUSH3 0x3F9 JUMP JUMPDEST SWAP3 SWAP2 POP POP JUMP JUMPDEST PUSH1 0x0 DUP1 PUSH1 0x0 DUP1 PUSH1 0x80 DUP6 DUP8 SUB SLT ISZERO PUSH3 0x447 JUMPI PUSH3 0x446 PUSH3 0x385 JUMP JUMPDEST JUMPDEST PUSH1 0x0 PUSH3 0x457 DUP8 DUP3 DUP9 ADD PUSH3 0x3AE JUMP JUMPDEST SWAP5 POP POP PUSH1 0x20 PUSH3 0x46A DUP8 DUP3 DUP9 ADD PUSH3 0x413 JUMP JUMPDEST SWAP4 POP POP PUSH1 0x40 PUSH3 0x47D DUP8 DUP3 DUP9 ADD PUSH3 0x3AE JUMP JUMPDEST SWAP3 POP POP PUSH1 0x60 PUSH3 0x490 DUP8 DUP3 DUP9 ADD PUSH3 0x3AE JUMP JUMPDEST SWAP2 POP POP SWAP3 SWAP6 SWAP2 SWAP5 POP SWAP3 POP JUMP JUMPDEST PUSH2 0xF79 DUP1 PUSH3 0x4AC PUSH1 0x0 CODECOPY PUSH1 0x0 RETURN INVALID PUSH1 0x80 PUSH1 0x40 MSTORE PUSH1 0x4 CALLDATASIZE LT PUSH2 0x3F JUMPI PUSH1 0x0 CALLDATALOAD PUSH1 0xE0 SHR DUP1 PUSH4 0x1998AEEF EQ PUSH2 0x44 JUMPI DUP1 PUSH4 0x278ECDE1 EQ PUSH2 0x62 JUMPI DUP1 PUSH4 0x2E9C58BB EQ PUSH2 0x8B JUMPI DUP1 PUSH4 0x4BB278F3 EQ PUSH2 0xB6 JUMPI JUMPDEST PUSH1 0x0 DUP1 REVERT JUMPDEST PUSH2 0x4C PUSH2 0xCD JUMP JUMPDEST PUSH1 0x40 MLOAD PUSH2 0x59 SWAP2 SWAP1 PUSH2 0xD77 JUMP JUMPDEST PUSH1 0x40 MLOAD DUP1 SWAP2 SUB SWAP1 RETURN JUMPDEST CALLVALUE DUP1 ISZERO PUSH2 0x6E JUMPI PUSH1 0x0 DUP1 REVERT JUMPDEST POP PUSH2 0x89 PUSH1 0x4 DUP1 CALLDATASIZE SUB DUP2 ADD SWAP1 PUSH2 0x84 SWAP2 SWAP1 PUSH2 0xDCD JUMP JUMPDEST PUSH2 0x6BB JUMP JUMPDEST STOP JUMPDEST CALLVALUE DUP1 ISZERO PUSH2 0x97 JUMPI PUSH1 0x0 DUP1 REVERT JUMPDEST POP PUSH2 0xA0 PUSH2 0x900 JUMP JUMPDEST PUSH1 0x40 MLOAD PUSH2 0xAD SWAP2 SWAP1 PUSH2 0xE15 JUMP JUMPDEST PUSH1 0x40 MLOAD DUP1 SWAP2 SUB SWAP1 RETURN JUMPDEST CALLVALUE DUP1 ISZERO PUSH2 0xC2 JUMPI PUSH1 0x0 DUP1 REVERT JUMPDEST POP PUSH2 0xCB PUSH2 0x98D JUMP JUMPDEST STOP JUMPDEST PUSH1 0x0 PUSH2 0xFB PUSH32 0x742C493A0222F2A6F7F061411C6ABD1AFE470BBEA7DE23CE40028B88343ABF1C PUSH1 0x0 SHL PUSH2 0xD33 JUMP JUMPDEST PUSH2 0x127 PUSH32 0xC8F454485CD48112F1E666E24B3C00E24E9DC0F8DB5F3A08937B5C5B82914E33 PUSH1 0x0 SHL PUSH2 0xD33 JUMP JUMPDEST PUSH2 0x153 PUSH32 0x16939958B06498CC3A4C98D43CD3A5B357CA5BDC1BFC11D4E3B31797CAAAF795 PUSH1 0x0 SHL PUSH2 0xD33 JUMP JUMPDEST PUSH2 0x17F PUSH32 0x4D0640CF6C37E5135C009E8E965F4117ACB751C2E8E4EE616EE667D5E48AB52B PUSH1 0x0 SHL PUSH2 0xD33 JUMP JUMPDEST PUSH1 0x8 PUSH1 0x0 SWAP1 SLOAD SWAP1 PUSH2 0x100 EXP SWAP1 DIV PUSH1 0xFF AND ISZERO PUSH2 0x199 JUMPI PUSH1 0x0 DUP1 REVERT JUMPDEST PUSH2 0x1C5 PUSH32 0x2F74D88168757FD9506CAB1110A08A9CC7677DCDD712AD9B4583AEFBADAA877F PUSH1 0x0 SHL PUSH2 0xD33 JUMP JUMPDEST PUSH2 0x1F1 PUSH32 0xF5FF7D4F7823F9E7A6818003E1D8D83FFB04CF804708ADE9F16A74515EF290C7 PUSH1 0x0 SHL PUSH2 0xD33 JUMP JUMPDEST PUSH2 0x21D PUSH32 0x8E3937975807D13634428A5869880A093C71A97542F2AED999E01A09BD9E8864 PUSH1 0x0 SHL PUSH2 0xD33 JUMP JUMPDEST PUSH2 0x249 PUSH32 0x2CE8D27A3F34187D6038C79540B5C1B09B7496CADB1D3E94BCE12278EF944E0A PUSH1 0x0 SHL PUSH2 0xD33 JUMP JUMPDEST PUSH1 0x3 SLOAD PUSH1 0x5 SLOAD PUSH2 0x259 SWAP2 SWAP1 PUSH2 0xE5F JUMP JUMPDEST NUMBER LT PUSH2 0x264 JUMPI PUSH1 0x0 DUP1 REVERT JUMPDEST PUSH2 0x290 PUSH32 0xF6F37A5964589CF855D85BAA4002E207FBED0A77098F8F65BD9FAD7F1D07B56D PUSH1 0x0 SHL PUSH2 0xD33 JUMP JUMPDEST PUSH2 0x2BC PUSH32 0xADA00936C9CE28AF33EEC38EF5CB373C62D0D3118FBCFB31E7F1875D372E7564 PUSH1 0x0 SHL PUSH2 0xD33 JUMP JUMPDEST PUSH2 0x2E8 PUSH32 0x6C80E96D70F927B2D36C2665B47DB4E76E5F4018491917902D41C56B502D28DE PUSH1 0x0 SHL PUSH2 0xD33 JUMP JUMPDEST PUSH2 0x314 PUSH32 0xBB75F517552DAC29C2E84980B124E9E0B17148BAD90CC461711421B02050435E PUSH1 0x0 SHL PUSH2 0xD33 JUMP JUMPDEST NUMBER PUSH1 0x3 SLOAD PUSH1 0x5 SLOAD PUSH2 0x325 SWAP2 SWAP1 PUSH2 0xE5F JUMP JUMPDEST PUSH2 0x32F SWAP2 SWAP1 PUSH2 0xEB5 JUMP JUMPDEST PUSH1 0x4 SLOAD PUSH2 0x33C SWAP2 SWAP1 PUSH2 0xEE9 JUMP JUMPDEST PUSH1 0x1 SLOAD PUSH2 0x349 SWAP2 SWAP1 PUSH2 0xE5F JUMP JUMPDEST CALLVALUE LT ISZERO PUSH2 0x355 JUMPI PUSH1 0x0 DUP1 REVERT JUMPDEST PUSH2 0x381 PUSH32 0x651576E2B39AF03E31A0698C7F80DC5E2866660EFAB68E9499CA9D972DA0702B PUSH1 0x0 SHL PUSH2 0xD33 JUMP JUMPDEST PUSH2 0x3AD PUSH32 0x182EC3CB431296AB0A52F3229B80DB3A2668974A5BDF15B3CA48772FCC62EF65 PUSH1 0x0 SHL PUSH2 0xD33 JUMP JUMPDEST PUSH2 0x3D9 PUSH32 0x70BBCAD92DA3831CB4DEE6DAD6360188976B79B0C65783D6821CDD8BBE158730 PUSH1 0x0 SHL PUSH2 0xD33 JUMP JUMPDEST PUSH1 0x1 PUSH1 0x8 PUSH1 0x0 PUSH2 0x100 EXP DUP2 SLOAD DUP2 PUSH1 0xFF MUL NOT AND SWAP1 DUP4 ISZERO ISZERO MUL OR SWAP1 SSTORE POP PUSH2 0x420 PUSH32 0x996FE2F95C90332C5496A396B783B49F52BD6069F505682184F64613E8B28275 PUSH1 0x0 SHL PUSH2 0xD33 JUMP JUMPDEST PUSH2 0x44C PUSH32 0x3F6AD4B2B33B49C93FE8276CB1318F42EAF515FEA0B7D2F135BDFFEADF076633 PUSH1 0x0 SHL PUSH2 0xD33 JUMP JUMPDEST PUSH1 0x0 PUSH20 0xFFFFFFFFFFFFFFFFFFFFFFFFFFFFFFFFFFFFFFFF AND PUSH1 0x2 PUSH1 0x0 SWAP1 SLOAD SWAP1 PUSH2 0x100 EXP SWAP1 DIV PUSH20 0xFFFFFFFFFFFFFFFFFFFFFFFFFFFFFFFFFFFFFFFF AND PUSH20 0xFFFFFFFFFFFFFFFFFFFFFFFFFFFFFFFFFFFFFFFF AND EQ ISZERO PUSH2 0x593 JUMPI PUSH2 0x4CF PUSH32 0x33F23D2EEA932D84AEF87160F5B1E0E389873A7E9D1CF8C91172239B4D6FFD5E PUSH1 0x0 SHL PUSH2 0xD33 JUMP JUMPDEST PUSH2 0x4FB PUSH32 0xB5C76D2BB5CB12F2A8FB439A01E2F37E6039CA8A7E991EFF515AB3C5D9561334 PUSH1 0x0 SHL PUSH2 0xD33 JUMP JUMPDEST PUSH2 0x527 PUSH32 0x92185A962858E565112EACF0630A68C7A51FF54C6EF742219564E67F0D46E27A PUSH1 0x0 SHL PUSH2 0xD33 JUMP JUMPDEST PUSH1 0x0 DUP1 SLOAD SWAP1 PUSH2 0x100 EXP SWAP1 DIV PUSH20 0xFFFFFFFFFFFFFFFFFFFFFFFFFFFFFFFFFFFFFFFF AND PUSH20 0xFFFFFFFFFFFFFFFFFFFFFFFFFFFFFFFFFFFFFFFF AND PUSH2 0x8FC CALLVALUE SWAP1 DUP2 ISZERO MUL SWAP1 PUSH1 0x40 MLOAD PUSH1 0x0 PUSH1 0x40 MLOAD DUP1 DUP4 SUB DUP2 DUP6 DUP9 DUP9 CALL SWAP4 POP POP POP POP ISZERO DUP1 ISZERO PUSH2 0x58D JUMPI RETURNDATASIZE PUSH1 0x0 DUP1 RETURNDATACOPY RETURNDATASIZE PUSH1 0x0 REVERT JUMPDEST POP PUSH2 0x6B8 JUMP JUMPDEST PUSH2 0x5BF PUSH32 0xB853BF5897CE0924CA2728E4536744794E21B1B8BF4A43830BF03D27B40C4B1 PUSH1 0x0 SHL PUSH2 0xD33 JUMP JUMPDEST PUSH2 0x5EB PUSH32 0xD5287B963668122425B8C45D0C715758A889BFFCB797BA252DDF2458FE1DFEC4 PUSH1 0x0 SHL PUSH2 0xD33 JUMP JUMPDEST PUSH2 0x617 PUSH32 0x131BF6F8AB96F32B7D565D7C5982280022E10FCBF08B0F2818496999827A5159 PUSH1 0x0 SHL PUSH2 0xD33 JUMP JUMPDEST CALLER PUSH1 0x6 PUSH1 0x0 PUSH2 0x100 EXP DUP2 SLOAD DUP2 PUSH20 0xFFFFFFFFFFFFFFFFFFFFFFFFFFFFFFFFFFFFFFFF MUL NOT AND SWAP1 DUP4 PUSH20 0xFFFFFFFFFFFFFFFFFFFFFFFFFFFFFFFFFFFFFFFF AND MUL OR SWAP1 SSTORE POP PUSH2 0x684 PUSH32 0xC467AEDCF1E2E0A14B513478CF3F7EBA24B59702BD2634090445963C18326DE6 PUSH1 0x0 SHL PUSH2 0xD33 JUMP JUMPDEST PUSH2 0x6B0 PUSH32 0xBFC3ED28E3464B4E6F6A247F89F2434AE06C9151459C5BFC0C9F077905FEC567 PUSH1 0x0 SHL PUSH2 0xD33 JUMP JUMPDEST CALLVALUE PUSH1 0x7 DUP2 SWAP1 SSTORE POP JUMPDEST SWAP1 JUMP JUMPDEST PUSH2 0x6E7 PUSH32 0x3D64DEF7A2C31CD56D4200C9DD8B8F72412387C464E19DA2A685348105AA8EEC PUSH1 0x0 SHL PUSH2 0xD33 JUMP JUMPDEST PUSH2 0x713 PUSH32 0xE82890ACB30C025CA0B0906EA6F1F44619C1DA39EAD3B26C304E4FB9CC66B6AF PUSH1 0x0 SHL PUSH2 0xD33 JUMP JUMPDEST PUSH2 0x73F PUSH32 0x8E0122FC3CFD831DFBB4ABCF365D57C1E9EDDDF03DCCAA418723AF87CB5E38FA PUSH1 0x0 SHL PUSH2 0xD33 JUMP JUMPDEST PUSH2 0x76B PUSH32 0xBED33D79409999A9094A5C5D0DA7BEEB18007E5D75A091C9FA57F0A0E02A8B86 PUSH1 0x0 SHL PUSH2 0xD33 JUMP JUMPDEST PUSH1 0x8 PUSH1 0x0 SWAP1 SLOAD SWAP1 PUSH2 0x100 EXP SWAP1 DIV PUSH1 0xFF AND DUP1 ISZERO PUSH2 0x794 JUMPI POP PUSH1 0x8 PUSH1 0x1 SWAP1 SLOAD SWAP1 PUSH2 0x100 EXP SWAP1 DIV PUSH1 0xFF AND ISZERO JUMPDEST PUSH2 0x79D JUMPI PUSH1 0x0 DUP1 REVERT JUMPDEST PUSH2 0x7C9 PUSH32 0x9B7D64D9B52B8EEA1158876D6C0BFD40A45BA52D8609D60E8E0867BA870DF6F4 PUSH1 0x0 SHL PUSH2 0xD33 JUMP JUMPDEST PUSH2 0x7F5 PUSH32 0x34E91A904AB41BBDA6BD1CAE23A5C85FAFF486F7FD66A9EF7A014BC378BBBC93 PUSH1 0x0 SHL PUSH2 0xD33 JUMP JUMPDEST PUSH2 0x821 PUSH32 0x7F78A2C753C090B792CAB14AB3177673805F177FBE1B94BEC75D15EF39E7D9C PUSH1 0x0 SHL PUSH2 0xD33 JUMP JUMPDEST PUSH1 0x1 PUSH1 0x8 PUSH1 0x1 PUSH2 0x100 EXP DUP2 SLOAD DUP2 PUSH1 0xFF MUL NOT AND SWAP1 DUP4 ISZERO ISZERO MUL OR SWAP1 SSTORE POP PUSH2 0x868 PUSH32 0xE49DF7B7467037D834C0333BE02665C2755EE10D99C761240B3BEFD0B5A846FB PUSH1 0x0 SHL PUSH2 0xD33 JUMP JUMPDEST PUSH2 0x894 PUSH32 0x6E1083ADF70A0817DA4374483630EB720945B51311D9A83AD3640BA4BCB3AC4 PUSH1 0x0 SHL PUSH2 0xD33 JUMP JUMPDEST PUSH1 0x6 PUSH1 0x0 SWAP1 SLOAD SWAP1 PUSH2 0x100 EXP SWAP1 DIV PUSH20 0xFFFFFFFFFFFFFFFFFFFFFFFFFFFFFFFFFFFFFFFF AND PUSH20 0xFFFFFFFFFFFFFFFFFFFFFFFFFFFFFFFFFFFFFFFF AND PUSH2 0x8FC DUP3 SWAP1 DUP2 ISZERO MUL SWAP1 PUSH1 0x40 MLOAD PUSH1 0x0 PUSH1 0x40 MLOAD DUP1 DUP4 SUB DUP2 DUP6 DUP9 DUP9 CALL SWAP4 POP POP POP POP ISZERO DUP1 ISZERO PUSH2 0x8FC JUMPI RETURNDATASIZE PUSH1 0x0 DUP1 RETURNDATACOPY RETURNDATASIZE PUSH1 0x0 REVERT JUMPDEST POP POP JUMP JUMPDEST PUSH1 0x0 PUSH2 0x92E PUSH32 0x56CE1F72E5DAC4C2C4F8155D19FC5FC625CF55F79A41C76FCE2B792D3C774A90 PUSH1 0x0 SHL PUSH2 0xD33 JUMP JUMPDEST PUSH2 0x95A PUSH32 0x4EE852C6A899261F3F12079DD5E418321B9040B4DE480F791BE8EAD842313FC3 PUSH1 0x0 SHL PUSH2 0xD33 JUMP JUMPDEST PUSH2 0x986 PUSH32 0xB4196435DF813BA1A2B1255FF3600B1EFDFF7CBC208C4E4A59F429FB28F5384C PUSH1 0x0 SHL PUSH2 0xD33 JUMP JUMPDEST PUSH1 0x1 SWAP1 POP SWAP1 JUMP JUMPDEST PUSH2 0x9B9 PUSH32 0xA76F553C96E6F8147E13847F1172A30F8AC9FBD681A81839F6CFAB4B09EE3865 PUSH1 0x0 SHL PUSH2 0xD33 JUMP JUMPDEST PUSH2 0x9E5 PUSH32 0xF3F03F38322351C02A22D61E920FF7ECEFA55982048FF84D89791E440C0855EC PUSH1 0x0 SHL PUSH2 0xD33 JUMP JUMPDEST PUSH2 0xA11 PUSH32 0xC6B44D22926F1792A98196D26E85F455B4129EF0C722F10183E1B53D617A1EE9 PUSH1 0x0 SHL PUSH2 0xD33 JUMP JUMPDEST PUSH2 0xA3D PUSH32 0xD02E7515C60BDDFA92AB5C76845E35689BD748F1F7DC0CB84EDF1FF877FFA854 PUSH1 0x0 SHL PUSH2 0xD33 JUMP JUMPDEST PUSH1 0x8 PUSH1 0x0 SWAP1 SLOAD SWAP1 PUSH2 0x100 EXP SWAP1 DIV PUSH1 0xFF AND DUP1 ISZERO PUSH2 0xA66 JUMPI POP PUSH1 0x8 PUSH1 0x1 SWAP1 SLOAD SWAP1 PUSH2 0x100 EXP SWAP1 DIV PUSH1 0xFF AND ISZERO JUMPDEST PUSH2 0xA6F JUMPI PUSH1 0x0 DUP1 REVERT JUMPDEST PUSH2 0xA9B PUSH32 0x27BFB64D27C32F25F0456CDFA30D453CA72E0580CDA0C90BAAC06E3C6BC4833D PUSH1 0x0 SHL PUSH2 0xD33 JUMP JUMPDEST PUSH2 0xAC7 PUSH32 0xCB44EA91AEF3C1F06EA7C61F575CC811E4E3DFB8B824984F2875DD379268B78F PUSH1 0x0 SHL PUSH2 0xD33 JUMP JUMPDEST PUSH2 0xAF3 PUSH32 0x89871E2D5B04A1D4737C18C97032CA7A9A5AABFABEE4659B44EE17FEE94C2577 PUSH1 0x0 SHL PUSH2 0xD33 JUMP JUMPDEST PUSH2 0xB1F PUSH32 0xE3A41C0D515F54E4E4D1D4BB99558511E1DC63FAB059588160C0C14E9670E72F PUSH1 0x0 SHL PUSH2 0xD33 JUMP JUMPDEST PUSH1 0x2 PUSH1 0x0 SWAP1 SLOAD SWAP1 PUSH2 0x100 EXP SWAP1 DIV PUSH20 0xFFFFFFFFFFFFFFFFFFFFFFFFFFFFFFFFFFFFFFFF AND PUSH20 0xFFFFFFFFFFFFFFFFFFFFFFFFFFFFFFFFFFFFFFFF AND CALLER PUSH20 0xFFFFFFFFFFFFFFFFFFFFFFFFFFFFFFFFFFFFFFFF AND EQ DUP1 PUSH2 0xBC8 JUMPI POP PUSH1 0x6 PUSH1 0x0 SWAP1 SLOAD SWAP1 PUSH2 0x100 EXP SWAP1 DIV PUSH20 0xFFFFFFFFFFFFFFFFFFFFFFFFFFFFFFFFFFFFFFFF AND PUSH20 0xFFFFFFFFFFFFFFFFFFFFFFFFFFFFFFFFFFFFFFFF AND CALLER PUSH20 0xFFFFFFFFFFFFFFFFFFFFFFFFFFFFFFFFFFFFFFFF AND EQ JUMPDEST PUSH2 0xBD1 JUMPI PUSH1 0x0 DUP1 REVERT JUMPDEST PUSH2 0xBFD PUSH32 0x3AEF8A872496B3FF6D0062B5291CC6CB4806B6BCFCFE8706398B0007124C0228 PUSH1 0x0 SHL PUSH2 0xD33 JUMP JUMPDEST PUSH2 0xC29 PUSH32 0x9FA377BCA085E0E726FAF60D1508C9A4EA57BFD8E62C3369328AE6D911A1369B PUSH1 0x0 SHL PUSH2 0xD33 JUMP JUMPDEST PUSH2 0xC55 PUSH32 0x38943C7C3F9D33BC419EB35ECDE5E7D8DA25A16A9364B6A6495F37DF647A4351 PUSH1 0x0 SHL PUSH2 0xD33 JUMP JUMPDEST PUSH1 0x1 PUSH1 0x8 PUSH1 0x1 PUSH2 0x100 EXP DUP2 SLOAD DUP2 PUSH1 0xFF MUL NOT AND SWAP1 DUP4 ISZERO ISZERO MUL OR SWAP1 SSTORE POP PUSH2 0xC9C PUSH32 0x42D277977AA0AFB8CE75DC9B47E36899300DE7C1148ADA4DA11E39CAA343A75E PUSH1 0x0 SHL PUSH2 0xD33 JUMP JUMPDEST PUSH2 0xCC8 PUSH32 0x1A08E7ADEEADE92F1B5D7AB2DD8418A8DA8772AE5CB49B6A41DC360FCA9674B3 PUSH1 0x0 SHL PUSH2 0xD33 JUMP JUMPDEST PUSH1 0x0 DUP1 SLOAD SWAP1 PUSH2 0x100 EXP SWAP1 DIV PUSH20 0xFFFFFFFFFFFFFFFFFFFFFFFFFFFFFFFFFFFFFFFF AND PUSH20 0xFFFFFFFFFFFFFFFFFFFFFFFFFFFFFFFFFFFFFFFF AND PUSH2 0x8FC PUSH1 0x7 SLOAD SWAP1 DUP2 ISZERO MUL SWAP1 PUSH1 0x40 MLOAD PUSH1 0x0 PUSH1 0x40 MLOAD DUP1 DUP4 SUB DUP2 DUP6 DUP9 DUP9 CALL SWAP4 POP POP POP POP ISZERO DUP1 ISZERO PUSH2 0xD30 JUMPI RETURNDATASIZE PUSH1 0x0 DUP1 RETURNDATACOPY RETURNDATASIZE PUSH1 0x0 REVERT JUMPDEST POP JUMP JUMPDEST POP JUMP JUMPDEST PUSH1 0x0 PUSH20 0xFFFFFFFFFFFFFFFFFFFFFFFFFFFFFFFFFFFFFFFF DUP3 AND SWAP1 POP SWAP2 SWAP1 POP JUMP JUMPDEST PUSH1 0x0 PUSH2 0xD61 DUP3 PUSH2 0xD36 JUMP JUMPDEST SWAP1 POP SWAP2 SWAP1 POP JUMP JUMPDEST PUSH2 0xD71 DUP2 PUSH2 0xD56 JUMP JUMPDEST DUP3 MSTORE POP POP JUMP JUMPDEST PUSH1 0x0 PUSH1 0x20 DUP3 ADD SWAP1 POP PUSH2 0xD8C PUSH1 0x0 DUP4 ADD DUP5 PUSH2 0xD68 JUMP JUMPDEST SWAP3 SWAP2 POP POP JUMP JUMPDEST PUSH1 0x0 DUP1 REVERT JUMPDEST PUSH1 0x0 DUP2 SWAP1 POP SWAP2 SWAP1 POP JUMP JUMPDEST PUSH2 0xDAA DUP2 PUSH2 0xD97 JUMP JUMPDEST DUP2 EQ PUSH2 0xDB5 JUMPI PUSH1 0x0 DUP1 REVERT JUMPDEST POP JUMP JUMPDEST PUSH1 0x0 DUP2 CALLDATALOAD SWAP1 POP PUSH2 0xDC7 DUP2 PUSH2 0xDA1 JUMP JUMPDEST SWAP3 SWAP2 POP POP JUMP JUMPDEST PUSH1 0x0 PUSH1 0x20 DUP3 DUP5 SUB SLT ISZERO PUSH2 0xDE3 JUMPI PUSH2 0xDE2 PUSH2 0xD92 JUMP JUMPDEST JUMPDEST PUSH1 0x0 PUSH2 0xDF1 DUP5 DUP3 DUP6 ADD PUSH2 0xDB8 JUMP JUMPDEST SWAP2 POP POP SWAP3 SWAP2 POP POP JUMP JUMPDEST PUSH1 0x0 DUP2 ISZERO ISZERO SWAP1 POP SWAP2 SWAP1 POP JUMP JUMPDEST PUSH2 0xE0F DUP2 PUSH2 0xDFA JUMP JUMPDEST DUP3 MSTORE POP POP JUMP JUMPDEST PUSH1 0x0 PUSH1 0x20 DUP3 ADD SWAP1 POP PUSH2 0xE2A PUSH1 0x0 DUP4 ADD DUP5 PUSH2 0xE06 JUMP JUMPDEST SWAP3 SWAP2 POP POP JUMP JUMPDEST PUSH32 0x4E487B7100000000000000000000000000000000000000000000000000000000 PUSH1 0x0 MSTORE PUSH1 0x11 PUSH1 0x4 MSTORE PUSH1 0x24 PUSH1 0x0 REVERT JUMPDEST PUSH1 0x0 PUSH2 0xE6A DUP3 PUSH2 0xD97 JUMP JUMPDEST SWAP2 POP PUSH2 0xE75 DUP4 PUSH2 0xD97 JUMP JUMPDEST SWAP3 POP DUP3 PUSH32 0xFFFFFFFFFFFFFFFFFFFFFFFFFFFFFFFFFFFFFFFFFFFFFFFFFFFFFFFFFFFFFFFF SUB DUP3 GT ISZERO PUSH2 0xEAA JUMPI PUSH2 0xEA9 PUSH2 0xE30 JUMP JUMPDEST JUMPDEST DUP3 DUP3 ADD SWAP1 POP SWAP3 SWAP2 POP POP JUMP JUMPDEST PUSH1 0x0 PUSH2 0xEC0 DUP3 PUSH2 0xD97 JUMP JUMPDEST SWAP2 POP PUSH2 0xECB DUP4 PUSH2 0xD97 JUMP JUMPDEST SWAP3 POP DUP3 DUP3 LT ISZERO PUSH2 0xEDE JUMPI PUSH2 0xEDD PUSH2 0xE30 JUMP JUMPDEST JUMPDEST DUP3 DUP3 SUB SWAP1 POP SWAP3 SWAP2 POP POP JUMP JUMPDEST PUSH1 0x0 PUSH2 0xEF4 DUP3 PUSH2 0xD97 JUMP JUMPDEST SWAP2 POP PUSH2 0xEFF DUP4 PUSH2 0xD97 JUMP JUMPDEST SWAP3 POP DUP2 PUSH32 0xFFFFFFFFFFFFFFFFFFFFFFFFFFFFFFFFFFFFFFFFFFFFFFFFFFFFFFFFFFFFFFFF DIV DUP4 GT DUP3 ISZERO ISZERO AND ISZERO PUSH2 0xF38 JUMPI PUSH2 0xF37 PUSH2 0xE30 JUMP JUMPDEST JUMPDEST DUP3 DUP3 MUL SWAP1 POP SWAP3 SWAP2 POP POP JUMP INVALID LOG2 PUSH5 0x6970667358 0x22 SLT KECCAK256 0xAD 0x4F 0xEF PUSH20 0xEE8A4B7E74DC3CA01AF2BF326CB74DE64BE83177 0xDB 0xD5 PUSH32 0xCFEF597DD864736F6C6343000809003300000000000000000000000000000000 "},"methodIdentifiers":{"bid()":"1998aeef","finalize()":"4bb278f3","nop()":"2e9c58bb","refund(uint256)":"278ecde1"}}}}}