{
  "_format": "hh-sol-artifact-1",
  "contractName": "DutchAuction",
  "sourceName": "contracts/DutchAuction.sol",
  "abi": [
    {
      "inputs": [
        {
          "internalType": "uint256",
          "name": "_reservePrice",
          "type": "uint256"
        },
        {
          "internalType": "address",
          "name": "_judgeAddress",
          "type": "address"
        },
        {
          "internalType": "uint256",
          "name": "_numBlocksAuctionOpen",
          "type": "uint256"
        },
        {
          "internalType": "uint256",
          "name": "_offerPriceDecrement",
          "type": "uint256"
        }
      ],
      "stateMutability": "nonpayable",
      "type": "constructor"
    },
    {
      "inputs": [],
      "name": "bid",
      "outputs": [
        {
          "internalType": "address",
          "name": "",
          "type": "address"
        }
      ],
      "stateMutability": "payable",
      "type": "function"
    },
    {
      "inputs": [],
      "name": "finalize",
      "outputs": [],
      "stateMutability": "nonpayable",
      "type": "function"
    },
    {
      "inputs": [],
      "name": "nop",
      "outputs": [
        {
          "internalType": "bool",
          "name": "",
          "type": "bool"
        }
      ],
      "stateMutability": "nonpayable",
      "type": "function"
    },
    {
      "inputs": [
        {
          "internalType": "uint256",
          "name": "refundAmount",
          "type": "uint256"
        }
      ],
      "name": "refund",
      "outputs": [],
      "stateMutability": "nonpayable",
      "type": "function"
    }
  ],
  "bytecode": "0x608060405234801561001057600080fd5b5060405161091f38038061091f83398181016040528101906100329190610171565b8360018190555082600260006101000a81548173ffffffffffffffffffffffffffffffffffffffff021916908373ffffffffffffffffffffffffffffffffffffffff1602179055508160038190555080600481905550336000806101000a81548173ffffffffffffffffffffffffffffffffffffffff021916908373ffffffffffffffffffffffffffffffffffffffff16021790555043600581905550505050506101d8565b600080fd5b6000819050919050565b6100f0816100dd565b81146100fb57600080fd5b50565b60008151905061010d816100e7565b92915050565b600073ffffffffffffffffffffffffffffffffffffffff82169050919050565b600061013e82610113565b9050919050565b61014e81610133565b811461015957600080fd5b50565b60008151905061016b81610145565b92915050565b6000806000806080858703121561018b5761018a6100d8565b5b6000610199878288016100fe565b94505060206101aa8782880161015c565b93505060406101bb878288016100fe565b92505060606101cc878288016100fe565b91505092959194509250565b610738806101e76000396000f3fe60806040526004361061003f5760003560e01c80631998aeef14610044578063278ecde1146100625780632e9c58bb1461008b5780634bb278f3146100b6575b600080fd5b61004c6100cd565b6040516100599190610536565b60405180910390f35b34801561006e57600080fd5b506100896004803603810190610084919061058c565b61026f565b005b34801561009757600080fd5b506100a0610382565b6040516100ad91906105d4565b60405180910390f35b3480156100c257600080fd5b506100cb61038b565b005b6000600860009054906101000a900460ff16156100e957600080fd5b6003546005546100f9919061061e565b431061010457600080fd5b43600354600554610115919061061e565b61011f9190610674565b60045461012c91906106a8565b600154610139919061061e565b34101561014557600080fd5b6001600860006101000a81548160ff021916908315150217905550600073ffffffffffffffffffffffffffffffffffffffff16600260009054906101000a900473ffffffffffffffffffffffffffffffffffffffff1673ffffffffffffffffffffffffffffffffffffffff1614156102235760008054906101000a900473ffffffffffffffffffffffffffffffffffffffff1673ffffffffffffffffffffffffffffffffffffffff166108fc349081150290604051600060405180830381858888f1935050505015801561021d573d6000803e3d6000fd5b5061026c565b33600660006101000a81548173ffffffffffffffffffffffffffffffffffffffff021916908373ffffffffffffffffffffffffffffffffffffffff160217905550346007819055505b90565b600860009054906101000a900460ff1680156102985750600860019054906101000a900460ff16155b6102a157600080fd5b600260009054906101000a900473ffffffffffffffffffffffffffffffffffffffff1673ffffffffffffffffffffffffffffffffffffffff163373ffffffffffffffffffffffffffffffffffffffff16146102fb57600080fd5b6001600860016101000a81548160ff021916908315150217905550600660009054906101000a900473ffffffffffffffffffffffffffffffffffffffff1673ffffffffffffffffffffffffffffffffffffffff166108fc829081150290604051600060405180830381858888f1935050505015801561037e573d6000803e3d6000fd5b5050565b60006001905090565b600860009054906101000a900460ff1680156103b45750600860019054906101000a900460ff16155b6103bd57600080fd5b600260009054906101000a900473ffffffffffffffffffffffffffffffffffffffff1673ffffffffffffffffffffffffffffffffffffffff163373ffffffffffffffffffffffffffffffffffffffff1614806104665750600660009054906101000a900473ffffffffffffffffffffffffffffffffffffffff1673ffffffffffffffffffffffffffffffffffffffff163373ffffffffffffffffffffffffffffffffffffffff16145b61046f57600080fd5b6001600860016101000a81548160ff02191690831515021790555060008054906101000a900473ffffffffffffffffffffffffffffffffffffffff1673ffffffffffffffffffffffffffffffffffffffff166108fc6007549081150290604051600060405180830381858888f193505050501580156104f2573d6000803e3d6000fd5b50565b600073ffffffffffffffffffffffffffffffffffffffff82169050919050565b6000610520826104f5565b9050919050565b61053081610515565b82525050565b600060208201905061054b6000830184610527565b92915050565b600080fd5b6000819050919050565b61056981610556565b811461057457600080fd5b50565b60008135905061058681610560565b92915050565b6000602082840312156105a2576105a1610551565b5b60006105b084828501610577565b91505092915050565b60008115159050919050565b6105ce816105b9565b82525050565b60006020820190506105e960008301846105c5565b92915050565b7f4e487b7100000000000000000000000000000000000000000000000000000000600052601160045260246000fd5b600061062982610556565b915061063483610556565b9250827fffffffffffffffffffffffffffffffffffffffffffffffffffffffffffffffff03821115610669576106686105ef565b5b828201905092915050565b600061067f82610556565b915061068a83610556565b92508282101561069d5761069c6105ef565b5b828203905092915050565b60006106b382610556565b91506106be83610556565b9250817fffffffffffffffffffffffffffffffffffffffffffffffffffffffffffffffff04831182151516156106f7576106f66105ef565b5b82820290509291505056fea264697066735822122092d7d27f7204d0f6383f830061b7e7097b29f5c3b7c6e5b1e3f5a081d04f6ba164736f6c63430008090033",
  "linkReferences": {},
  "deployedLinkReferences": {}
}