{
  "_format": "hh-sol-artifact-1",
  "contractName": "DutchAuction",
  "sourceName": "contracts/BasicDutchAuction.sol",
  "abi": [
    {
      "inputs": [
        {
          "internalType": "uint256",
          "name": "_reserve_price",
          "type": "uint256"
        },
        {
          "internalType": "address",
          "name": "_judge_address",
          "type": "address"
        },
        {
          "internalType": "uint256",
          "name": "_numBlocks_Auction_Open",
          "type": "uint256"
        },
        {
          "internalType": "uint256",
          "name": "_offer_price_decrement",
          "type": "uint256"
        }
      ],
      "stateMutability": "nonpayable",
      "type": "constructor"
    },
    {
      "inputs": [],
      "name": "bid",
      "outputs": [
        {
          "internalType": "address",
          "name": "",
          "type": "address"
        }
      ],
      "stateMutability": "payable",
      "type": "function"
    },
    {
      "inputs": [],
      "name": "finalize",
      "outputs": [],
      "stateMutability": "nonpayable",
      "type": "function"
    },
    {
      "inputs": [],
      "name": "nop",
      "outputs": [
        {
          "internalType": "bool",
          "name": "",
          "type": "bool"
        }
      ],
      "stateMutability": "nonpayable",
      "type": "function"
    },
    {
      "inputs": [
        {
          "internalType": "uint256",
          "name": "refundAmount",
          "type": "uint256"
        }
      ],
      "name": "refund",
      "outputs": [],
      "stateMutability": "nonpayable",
      "type": "function"
    }
  ],
  "bytecode": "0x60806040523480156200001157600080fd5b50604051620014253803806200142583398181016040528101906200003791906200042a565b6200006b7f5177cac4ea0892829c59b8f4091873c4ecac07cda9c3b2476da05d82db968bdc60001b6200038260201b60201c565b6200009f7f6a5992d3a99121f8812d47a048204247be6170dc06b3c0c7fc319b1ae9e1e96960001b6200038260201b60201c565b620000d37fbf21410ff84109b91b17e67c79227d5907ab6a8f37abf8207a17b41c0b61442360001b6200038260201b60201c565b836001819055506200010e7f82080f858d9bc956013aa1ade82fe5510534e7a9680181c7c249ad1b3c72e80c60001b6200038260201b60201c565b620001427f2076409f9e28c76a04067db499a30e934199af91b78f57d5601892820409972360001b6200038260201b60201c565b82600260006101000a81548173ffffffffffffffffffffffffffffffffffffffff021916908373ffffffffffffffffffffffffffffffffffffffff160217905550620001b77fb005e57fcac6867d702a296af20f29331b2db653eaf606422bc7f6d64dc6e8d860001b6200038260201b60201c565b620001eb7f9cba95fc4cd32d88073c1df300006b2a78d9370494610d02d1f575d76048c24b60001b6200038260201b60201c565b81600381905550620002267f188a475b7ec07d94cf4a91701bda2b44119af90aa59353c9b46651d3e4575c5960001b6200038260201b60201c565b6200025a7fa0a6065d54158b7f1610cf97b701116e939ee39422ea1b7816e784bb238a18ae60001b6200038260201b60201c565b80600481905550620002957faf52853e9290d30c4a28868cc8d3bd22683e8aef37714aed786e84c9be739e8660001b6200038260201b60201c565b620002c97f7477365cdd12ae5ae57ad42613e7c52d255161f116c4d9dc95ec05eab7ab6b9460001b6200038260201b60201c565b336000806101000a81548173ffffffffffffffffffffffffffffffffffffffff021916908373ffffffffffffffffffffffffffffffffffffffff1602179055506200033d7f732cde5e58c3954be417d6f187d7de1c8762c4c79a4bdec0e287c71f9e19874660001b6200038260201b60201c565b620003717fee1e99287dc95edf89c8ed40b5e95fa27a458b5c653fead33f26d22ebd78282e60001b6200038260201b60201c565b43600581905550505050506200049c565b50565b600080fd5b6000819050919050565b6200039f816200038a565b8114620003ab57600080fd5b50565b600081519050620003bf8162000394565b92915050565b600073ffffffffffffffffffffffffffffffffffffffff82169050919050565b6000620003f282620003c5565b9050919050565b6200040481620003e5565b81146200041057600080fd5b50565b6000815190506200042481620003f9565b92915050565b6000806000806080858703121562000447576200044662000385565b5b60006200045787828801620003ae565b94505060206200046a8782880162000413565b93505060406200047d87828801620003ae565b92505060606200049087828801620003ae565b91505092959194509250565b610f7980620004ac6000396000f3fe60806040526004361061003f5760003560e01c80631998aeef14610044578063278ecde1146100625780632e9c58bb1461008b5780634bb278f3146100b6575b600080fd5b61004c6100cd565b6040516100599190610d77565b60405180910390f35b34801561006e57600080fd5b5061008960048036038101906100849190610dcd565b6106bb565b005b34801561009757600080fd5b506100a0610900565b6040516100ad9190610e15565b60405180910390f35b3480156100c257600080fd5b506100cb61098d565b005b60006100fb7f742c493a0222f2a6f7f061411c6abd1afe470bbea7de23ce40028b88343abf1c60001b610d33565b6101277fc8f454485cd48112f1e666e24b3c00e24e9dc0f8db5f3a08937b5c5b82914e3360001b610d33565b6101537f16939958b06498cc3a4c98d43cd3a5b357ca5bdc1bfc11d4e3b31797caaaf79560001b610d33565b61017f7f4d0640cf6c37e5135c009e8e965f4117acb751c2e8e4ee616ee667d5e48ab52b60001b610d33565b600860009054906101000a900460ff161561019957600080fd5b6101c57f2f74d88168757fd9506cab1110a08a9cc7677dcdd712ad9b4583aefbadaa877f60001b610d33565b6101f17ff5ff7d4f7823f9e7a6818003e1d8d83ffb04cf804708ade9f16a74515ef290c760001b610d33565b61021d7f8e3937975807d13634428a5869880a093c71a97542f2aed999e01a09bd9e886460001b610d33565b6102497f2ce8d27a3f34187d6038c79540b5c1b09b7496cadb1d3e94bce12278ef944e0a60001b610d33565b6003546005546102599190610e5f565b431061026457600080fd5b6102907ff6f37a5964589cf855d85baa4002e207fbed0a77098f8f65bd9fad7f1d07b56d60001b610d33565b6102bc7fada00936c9ce28af33eec38ef5cb373c62d0d3118fbcfb31e7f1875d372e756460001b610d33565b6102e87f6c80e96d70f927b2d36c2665b47db4e76e5f4018491917902d41c56b502d28de60001b610d33565b6103147fbb75f517552dac29c2e84980b124e9e0b17148bad90cc461711421b02050435e60001b610d33565b436003546005546103259190610e5f565b61032f9190610eb5565b60045461033c9190610ee9565b6001546103499190610e5f565b34101561035557600080fd5b6103817f651576e2b39af03e31a0698c7f80dc5e2866660efab68e9499ca9d972da0702b60001b610d33565b6103ad7f182ec3cb431296ab0a52f3229b80db3a2668974a5bdf15b3ca48772fcc62ef6560001b610d33565b6103d97f70bbcad92da3831cb4dee6dad6360188976b79b0c65783d6821cdd8bbe15873060001b610d33565b6001600860006101000a81548160ff0219169083151502179055506104207f996fe2f95c90332c5496a396b783b49f52bd6069f505682184f64613e8b2827560001b610d33565b61044c7f3f6ad4b2b33b49c93fe8276cb1318f42eaf515fea0b7d2f135bdffeadf07663360001b610d33565b600073ffffffffffffffffffffffffffffffffffffffff16600260009054906101000a900473ffffffffffffffffffffffffffffffffffffffff1673ffffffffffffffffffffffffffffffffffffffff161415610593576104cf7f33f23d2eea932d84aef87160f5b1e0e389873a7e9d1cf8c91172239b4d6ffd5e60001b610d33565b6104fb7fb5c76d2bb5cb12f2a8fb439a01e2f37e6039ca8a7e991eff515ab3c5d956133460001b610d33565b6105277f92185a962858e565112eacf0630a68c7a51ff54c6ef742219564e67f0d46e27a60001b610d33565b60008054906101000a900473ffffffffffffffffffffffffffffffffffffffff1673ffffffffffffffffffffffffffffffffffffffff166108fc349081150290604051600060405180830381858888f1935050505015801561058d573d6000803e3d6000fd5b506106b8565b6105bf7f0b853bf5897ce0924ca2728e4536744794e21b1b8bf4a43830bf03d27b40c4b160001b610d33565b6105eb7fd5287b963668122425b8c45d0c715758a889bffcb797ba252ddf2458fe1dfec460001b610d33565b6106177f131bf6f8ab96f32b7d565d7c5982280022e10fcbf08b0f2818496999827a515960001b610d33565b33600660006101000a81548173ffffffffffffffffffffffffffffffffffffffff021916908373ffffffffffffffffffffffffffffffffffffffff1602179055506106847fc467aedcf1e2e0a14b513478cf3f7eba24b59702bd2634090445963c18326de660001b610d33565b6106b07fbfc3ed28e3464b4e6f6a247f89f2434ae06c9151459c5bfc0c9f077905fec56760001b610d33565b346007819055505b90565b6106e77f3d64def7a2c31cd56d4200c9dd8b8f72412387c464e19da2a685348105aa8eec60001b610d33565b6107137fe82890acb30c025ca0b0906ea6f1f44619c1da39ead3b26c304e4fb9cc66b6af60001b610d33565b61073f7f8e0122fc3cfd831dfbb4abcf365d57c1e9edddf03dccaa418723af87cb5e38fa60001b610d33565b61076b7fbed33d79409999a9094a5c5d0da7beeb18007e5d75a091c9fa57f0a0e02a8b8660001b610d33565b600860009054906101000a900460ff1680156107945750600860019054906101000a900460ff16155b61079d57600080fd5b6107c97f9b7d64d9b52b8eea1158876d6c0bfd40a45ba52d8609d60e8e0867ba870df6f460001b610d33565b6107f57f34e91a904ab41bbda6bd1cae23a5c85faff486f7fd66a9ef7a014bc378bbbc9360001b610d33565b6108217f07f78a2c753c090b792cab14ab3177673805f177fbe1b94bec75d15ef39e7d9c60001b610d33565b6001600860016101000a81548160ff0219169083151502179055506108687fe49df7b7467037d834c0333be02665c2755ee10d99c761240b3befd0b5a846fb60001b610d33565b6108947f06e1083adf70a0817da4374483630eb720945b51311d9a83ad3640ba4bcb3ac460001b610d33565b600660009054906101000a900473ffffffffffffffffffffffffffffffffffffffff1673ffffffffffffffffffffffffffffffffffffffff166108fc829081150290604051600060405180830381858888f193505050501580156108fc573d6000803e3d6000fd5b5050565b600061092e7f56ce1f72e5dac4c2c4f8155d19fc5fc625cf55f79a41c76fce2b792d3c774a9060001b610d33565b61095a7f4ee852c6a899261f3f12079dd5e418321b9040b4de480f791be8ead842313fc360001b610d33565b6109867fb4196435df813ba1a2b1255ff3600b1efdff7cbc208c4e4a59f429fb28f5384c60001b610d33565b6001905090565b6109b97fa76f553c96e6f8147e13847f1172a30f8ac9fbd681a81839f6cfab4b09ee386560001b610d33565b6109e57ff3f03f38322351c02a22d61e920ff7ecefa55982048ff84d89791e440c0855ec60001b610d33565b610a117fc6b44d22926f1792a98196d26e85f455b4129ef0c722f10183e1b53d617a1ee960001b610d33565b610a3d7fd02e7515c60bddfa92ab5c76845e35689bd748f1f7dc0cb84edf1ff877ffa85460001b610d33565b600860009054906101000a900460ff168015610a665750600860019054906101000a900460ff16155b610a6f57600080fd5b610a9b7f27bfb64d27c32f25f0456cdfa30d453ca72e0580cda0c90baac06e3c6bc4833d60001b610d33565b610ac77fcb44ea91aef3c1f06ea7c61f575cc811e4e3dfb8b824984f2875dd379268b78f60001b610d33565b610af37f89871e2d5b04a1d4737c18c97032ca7a9a5aabfabee4659b44ee17fee94c257760001b610d33565b610b1f7fe3a41c0d515f54e4e4d1d4bb99558511e1dc63fab059588160c0c14e9670e72f60001b610d33565b600260009054906101000a900473ffffffffffffffffffffffffffffffffffffffff1673ffffffffffffffffffffffffffffffffffffffff163373ffffffffffffffffffffffffffffffffffffffff161480610bc85750600660009054906101000a900473ffffffffffffffffffffffffffffffffffffffff1673ffffffffffffffffffffffffffffffffffffffff163373ffffffffffffffffffffffffffffffffffffffff16145b610bd157600080fd5b610bfd7f3aef8a872496b3ff6d0062b5291cc6cb4806b6bcfcfe8706398b0007124c022860001b610d33565b610c297f9fa377bca085e0e726faf60d1508c9a4ea57bfd8e62c3369328ae6d911a1369b60001b610d33565b610c557f38943c7c3f9d33bc419eb35ecde5e7d8da25a16a9364b6a6495f37df647a435160001b610d33565b6001600860016101000a81548160ff021916908315150217905550610c9c7f42d277977aa0afb8ce75dc9b47e36899300de7c1148ada4da11e39caa343a75e60001b610d33565b610cc87f1a08e7adeeade92f1b5d7ab2dd8418a8da8772ae5cb49b6a41dc360fca9674b360001b610d33565b60008054906101000a900473ffffffffffffffffffffffffffffffffffffffff1673ffffffffffffffffffffffffffffffffffffffff166108fc6007549081150290604051600060405180830381858888f19350505050158015610d30573d6000803e3d6000fd5b50565b50565b600073ffffffffffffffffffffffffffffffffffffffff82169050919050565b6000610d6182610d36565b9050919050565b610d7181610d56565b82525050565b6000602082019050610d8c6000830184610d68565b92915050565b600080fd5b6000819050919050565b610daa81610d97565b8114610db557600080fd5b50565b600081359050610dc781610da1565b92915050565b600060208284031215610de357610de2610d92565b5b6000610df184828501610db8565b91505092915050565b60008115159050919050565b610e0f81610dfa565b82525050565b6000602082019050610e2a6000830184610e06565b92915050565b7f4e487b7100000000000000000000000000000000000000000000000000000000600052601160045260246000fd5b6000610e6a82610d97565b9150610e7583610d97565b9250827fffffffffffffffffffffffffffffffffffffffffffffffffffffffffffffffff03821115610eaa57610ea9610e30565b5b828201905092915050565b6000610ec082610d97565b9150610ecb83610d97565b925082821015610ede57610edd610e30565b5b828203905092915050565b6000610ef482610d97565b9150610eff83610d97565b9250817fffffffffffffffffffffffffffffffffffffffffffffffffffffffffffffffff0483118215151615610f3857610f37610e30565b5b82820290509291505056fea2646970667358221220ad4fef73ee8a4b7e74dc3ca01af2bf326cb74de64be83177dbd57fcfef597dd864736f6c63430008090033",
  "linkReferences": {},
  "deployedLinkReferences": {}
}